:1000000003308A00EA2B0000C2346537F632EE3442
:10001000E437210049376739E5396510C337E434DF
:10002000E7370000D3322039E534EE34E3346F1083
:1000300065360001F334733AE536610049376739B4
:10004000E5396510C337E434E7370000C337E434DB
:10005000E7373A100000C131E332F337A0216F37A0
:10006000E332E434E43700014937F4326E3A6F107A
:10007000E6306C3669326F004937F4326E3A6510FB
:10008000E4322037F532F637000049376739E53971
:100090006510C337E434E7370000D334733AE536EC
:1000A00061104236EF38F53261326F00C3376E337C
:1000B000E93375396139A0216F32E9336F00C337F5
:1000C000E434E737A023F53072326132EF100001DB
:1000D00049376739E5396510C337E434E73700003D
:1000E0003E30840083130008031984280130F8008F
:1000F000F701F70B7928F80B78284A30F700F70B4F
:100100007F288228800B76280800450EF039F700FA
:100110000F30080577048800000008148F280810A5
:1001200008000808F700080E0F39F80008008316C9
:10013000081088100811831288100F3083160805E4
:10014000F038880083120815000008140000912080
:100150007808C500081000000814000091207808F5
:10016000C40008100F308316080588008312450E5E
:10017000F700F030F70577084404F8007808C40069
:10018000C41B9D28421C88104218881400000811C6
:1001900000000810430EC4000F30C4054408C50019
:1001A000852043080F39C400C50085200800283089
:1001B000B1000C30B2000130B3000630B4000810BA
:1001C000881008110F308316080588000810881061
:1001D00008110F308312BE0070200130B0003008CB
:1001E000033C031CFB280330C50085200530BE00FE
:1001F0007020B00AEF280230C50085200530BE000F
:100200007020B0013008033C031C12293130300744
:10021000840083130008B500C2013508C30097208D
:10022000B00A02298A110A120C2C3F0B18291B292B
:100230004030C0001C29C00101303E02C007400808
:100240008038C100C2014108C300972008003D0862
:10025000073A031935290B3A03193A29063A0319C3
:100260004229023A031948294D290130BE00BF0036
:1002700015215229C2010130C30097200230BE006F
:10028000702052290130BE000230BF0015215229D2
:10029000C2011030C300972052290130C2003D082E
:1002A000C300972008000B08BA008B1383160317AE
:1002B0008C170C140000000083120313BA1B8B1759
:1002C00003170C087F390319A7290313BA00031772
:1002D0000D080313BB0003170F080313BC003A08F3
:1002E000BD0027213B0803178D0003133C080317AB
:1002F0008F0003130B08BD008B13831603178C1795
:100300000C140000000083120313BD1B8B1703178E
:100310000C0D0E0D7F390319A7290313BA0003171B
:100320000D080313BB0003170F080313BC003A08A2
:10033000BD0027213B0803178D0003133C0803175A
:100340008F008D0A03198F0A031353290317031310
:1003500008000C30BD002721043003178D00003049
:100360008F00031353210830B000FA30BE00702014
:10037000B00BB5290C30BD0027210A3003178D00C2
:1003800000308F00031353218A110A12102C0C30F5
:10039000BD0027210130BE00BF0015212630031704
:1003A0008D0000308F00031353212908013C0318EE
:1003B000ED2902302902213E8400831330300007EA
:1003C000BA00BD00272101302902213E8400831399
:1003D00030300007BA00BD00272130303907BA009D
:1003E000BD00272108000130B000B100B601B701FF
:1003F0002012200883168700831207160C30BD00D8
:100400002721563003178D0000308F00031353212E
:100410003608033C031C502A831606148312061860
:100420001F2A300B1F2A1430BE007020B001B70AFB
:100430003708093C031CB7013708B900C7218316E8
:1004400006148312061C2C2AB008031D2C2A143013
:10045000BE0070200130B000831686148312861807
:10046000422A310B422A1430BE007020B1013230D2
:1004700036078400831337088000B60A3608033C29
:100480000318B701831686148312861C4F2AB108FD
:10049000031D4F2A1430BE0070200130B100082A1D
:1004A000B8013808033C031C6A2A25303807F800D5
:1004B000FA010318FA0A323038078400831300085F
:1004C000BB007808840083137A1883173B088000E8
:1004D000B80A512A201220088316870083120712B7
:1004E0000C30BD0027215F3003178D0000308F00D6
:1004F000031353210830B900FA30BE007020B90B45
:100500007C2A0C30BD002721683003178D00003095
:100510008F0003135321AB018A110A12152C0130ED
:10052000B000B100B200B301A9012908033C031CCB
:10053000292B8316861483128618A62A831606157D
:1005400083120619A62A0130AB00292B8316061444
:1005500083120618B92A300BB92A1430BE00702055
:10056000B001B30A3308093C031CB3013308B900D6
:10057000C721831606148312061CC62AB008031D61
:10058000C62A1430BE0070200130B00083168614D5
:1005900083128618DC2A310BDC2A1430BE0070204E
:1005A000B101213029078400831333088000A90A90
:1005B0002908033C0318B301831686148312861C92
:1005C000E92AB108031DE92A1430BE007020013069
:1005D000B10083160615831206191B2B320B1B2B39
:1005E0001430BE007020B2010C30BD002721123043
:1005F00003178D0000308F00031353210A30BD0014
:1006000027211A3003178D0000308F000313532168
:100610000830B400FA30BE007020B40B0A2BA901D8
:10062000B3010C30BD0027211E3003178D000030B0
:100630008F0003135321831606158312061D282BE2
:10064000B208031D282B1430BE0070200130B20008
:10065000952A8A110A12172C0130B000B101310815
:10066000033C031C452B2130310784008313000811
:10067000B3002530310784008313000833020319C7
:10068000432BB001452BB10A2F2BB0080319682B5F
:100690000C30BD0027212B3003178D0000308F0058
:1006A0000313532120102008831687008312071498
:1006B0001430B300FA30BE007020B30B5A2B201058
:1006C00020088316870083120710AA01AC01D32BE0
:1006D0000C30BD002721A01020088316870083124C
:1006E0008714343003178D0000308F00031353211B
:1006F0000430B300FA30BE007020B30B7A2B0C30FC
:10070000BD0027213C3003178D0000308F000313FC
:100710005321B2013208043C031C9D2BA010200879
:1007200083168700023083128706B3009630BE001E
:100730007020B30B962BB20A8A2BA01020088316C8
:10074000870083128710AA0A2A08023C0318D32BB9
:100750000C30BD0027214D3003178D0000308F0075
:1007600003135321201120088316870083120715D5
:10077000A011200883168700831287152830B30044
:10078000FA30BE007020B30BC02B20112008831656
:10079000870083120711A011200883168700831297
:1007A0008711AA01AC018A110A12182C1430B0006A
:1007B000FA30BE007020B00BD82B0C30BD002721C2
:1007C000453003178D0000308F00031353218A1129
:1007D0000A12192C03081F398300FF30A000A90159
:1007E000AA01AB01AC010130AD00AF01AE0183162F
:1007F0001F149F141F159F1107309C008313043092
:100800008312A5000330A6000230A7000130A80023
:10081000831681138312D728AD080319112CA92937
:10082000AD01AB080319162CF329192C8F2A2C2B98
:06083000D62B112C630021
:02400E00713F00
:00000001FF
;PIC16F877A
;CRC=8C78  CREATED="28-oct.-24 23:30"
